{
  "address": "0x32b8ED4F44065c13B60fe93D47A1f8E86125DA7a",
  "abi": [
    {
      "inputs": [
        {
          "internalType": "address",
          "name": "registry",
          "type": "address"
        },
        {
          "internalType": "string",
          "name": "defaultImage",
          "type": "string"
        }
      ],
      "stateMutability": "nonpayable",
      "type": "constructor"
    },
    {
      "inputs": [],
      "name": "ApprovalCallerNotOwnerNorApproved",
      "type": "error"
    },
    {
      "inputs": [],
      "name": "ApprovalQueryForNonexistentToken",
      "type": "error"
    },
    {
      "inputs": [],
      "name": "ApproveToCaller",
      "type": "error"
    },
    {
      "inputs": [],
      "name": "BalanceQueryForZeroAddress",
      "type": "error"
    },
    {
      "inputs": [],
      "name": "MintERC2309QuantityExceedsLimit",
      "type": "error"
    },
    {
      "inputs": [],
      "name": "MintToZeroAddress",
      "type": "error"
    },
    {
      "inputs": [],
      "name": "MintZeroQuantity",
      "type": "error"
    },
    {
      "inputs": [],
      "name": "OwnerQueryForNonexistentToken",
      "type": "error"
    },
    {
      "inputs": [],
      "name": "OwnershipNotInitializedForExtraData",
      "type": "error"
    },
    {
      "inputs": [],
      "name": "TransferCallerNotOwnerNorApproved",
      "type": "error"
    },
    {
      "inputs": [],
      "name": "TransferFromIncorrectOwner",
      "type": "error"
    },
    {
      "inputs": [],
      "name": "TransferToNonERC721ReceiverImplementer",
      "type": "error"
    },
    {
      "inputs": [],
      "name": "TransferToZeroAddress",
      "type": "error"
    },
    {
      "inputs": [],
      "name": "URIQueryForNonexistentToken",
      "type": "error"
    },
    {
      "anonymous": false,
      "inputs": [
        {
          "indexed": true,
          "internalType": "address",
          "name": "owner",
          "type": "address"
        },
        {
          "indexed": true,
          "internalType": "address",
          "name": "approved",
          "type": "address"
        },
        {
          "indexed": true,
          "internalType": "uint256",
          "name": "tokenId",
          "type": "uint256"
        }
      ],
      "name": "Approval",
      "type": "event"
    },
    {
      "anonymous": false,
      "inputs": [
        {
          "indexed": true,
          "internalType": "address",
          "name": "owner",
          "type": "address"
        },
        {
          "indexed": true,
          "internalType": "address",
          "name": "operator",
          "type": "address"
        },
        {
          "indexed": false,
          "internalType": "bool",
          "name": "approved",
          "type": "bool"
        }
      ],
      "name": "ApprovalForAll",
      "type": "event"
    },
    {
      "anonymous": false,
      "inputs": [
        {
          "indexed": true,
          "internalType": "uint256",
          "name": "fromTokenId",
          "type": "uint256"
        },
        {
          "indexed": false,
          "internalType": "uint256",
          "name": "toTokenId",
          "type": "uint256"
        },
        {
          "indexed": true,
          "internalType": "address",
          "name": "from",
          "type": "address"
        },
        {
          "indexed": true,
          "internalType": "address",
          "name": "to",
          "type": "address"
        }
      ],
      "name": "ConsecutiveTransfer",
      "type": "event"
    },
    {
      "anonymous": false,
      "inputs": [
        {
          "indexed": true,
          "internalType": "address",
          "name": "previousOwner",
          "type": "address"
        },
        {
          "indexed": true,
          "internalType": "address",
          "name": "newOwner",
          "type": "address"
        }
      ],
      "name": "OwnershipTransferred",
      "type": "event"
    },
    {
      "anonymous": false,
      "inputs": [
        {
          "indexed": true,
          "internalType": "address",
          "name": "from",
          "type": "address"
        },
        {
          "indexed": true,
          "internalType": "address",
          "name": "to",
          "type": "address"
        },
        {
          "indexed": true,
          "internalType": "uint256",
          "name": "tokenId",
          "type": "uint256"
        }
      ],
      "name": "Transfer",
      "type": "event"
    },
    {
      "inputs": [
        {
          "internalType": "address",
          "name": "to",
          "type": "address"
        },
        {
          "internalType": "uint256",
          "name": "tokenId",
          "type": "uint256"
        }
      ],
      "name": "approve",
      "outputs": [],
      "stateMutability": "nonpayable",
      "type": "function"
    },
    {
      "inputs": [
        {
          "internalType": "address",
          "name": "owner",
          "type": "address"
        }
      ],
      "name": "balanceOf",
      "outputs": [
        {
          "internalType": "uint256",
          "name": "",
          "type": "uint256"
        }
      ],
      "stateMutability": "view",
      "type": "function"
    },
    {
      "inputs": [
        {
          "internalType": "uint256",
          "name": "tokenId",
          "type": "uint256"
        }
      ],
      "name": "getApproved",
      "outputs": [
        {
          "internalType": "address",
          "name": "",
          "type": "address"
        }
      ],
      "stateMutability": "view",
      "type": "function"
    },
    {
      "inputs": [
        {
          "internalType": "address",
          "name": "owner",
          "type": "address"
        },
        {
          "internalType": "address",
          "name": "operator",
          "type": "address"
        }
      ],
      "name": "isApprovedForAll",
      "outputs": [
        {
          "internalType": "bool",
          "name": "",
          "type": "bool"
        }
      ],
      "stateMutability": "view",
      "type": "function"
    },
    {
      "inputs": [],
      "name": "metadataURI",
      "outputs": [
        {
          "internalType": "string",
          "name": "",
          "type": "string"
        }
      ],
      "stateMutability": "view",
      "type": "function"
    },
    {
      "inputs": [
        {
          "internalType": "string",
          "name": "title",
          "type": "string"
        },
        {
          "internalType": "string",
          "name": "tag_1",
          "type": "string"
        },
        {
          "internalType": "string",
          "name": "tag_2",
          "type": "string"
        },
        {
          "internalType": "string",
          "name": "tag_3",
          "type": "string"
        },
        {
          "internalType": "string",
          "name": "ipfsCid",
          "type": "string"
        }
      ],
      "name": "mint",
      "outputs": [],
      "stateMutability": "nonpayable",
      "type": "function"
    },
    {
      "inputs": [],
      "name": "name",
      "outputs": [
        {
          "internalType": "string",
          "name": "",
          "type": "string"
        }
      ],
      "stateMutability": "view",
      "type": "function"
    },
    {
      "inputs": [],
      "name": "owner",
      "outputs": [
        {
          "internalType": "address",
          "name": "",
          "type": "address"
        }
      ],
      "stateMutability": "view",
      "type": "function"
    },
    {
      "inputs": [
        {
          "internalType": "uint256",
          "name": "tokenId",
          "type": "uint256"
        }
      ],
      "name": "ownerOf",
      "outputs": [
        {
          "internalType": "address",
          "name": "",
          "type": "address"
        }
      ],
      "stateMutability": "view",
      "type": "function"
    },
    {
      "inputs": [],
      "name": "renounceOwnership",
      "outputs": [],
      "stateMutability": "nonpayable",
      "type": "function"
    },
    {
      "inputs": [
        {
          "internalType": "address",
          "name": "from",
          "type": "address"
        },
        {
          "internalType": "address",
          "name": "to",
          "type": "address"
        },
        {
          "internalType": "uint256",
          "name": "tokenId",
          "type": "uint256"
        }
      ],
      "name": "safeTransferFrom",
      "outputs": [],
      "stateMutability": "nonpayable",
      "type": "function"
    },
    {
      "inputs": [
        {
          "internalType": "address",
          "name": "from",
          "type": "address"
        },
        {
          "internalType": "address",
          "name": "to",
          "type": "address"
        },
        {
          "internalType": "uint256",
          "name": "tokenId",
          "type": "uint256"
        },
        {
          "internalType": "bytes",
          "name": "_data",
          "type": "bytes"
        }
      ],
      "name": "safeTransferFrom",
      "outputs": [],
      "stateMutability": "nonpayable",
      "type": "function"
    },
    {
      "inputs": [
        {
          "internalType": "address",
          "name": "operator",
          "type": "address"
        },
        {
          "internalType": "bool",
          "name": "approved",
          "type": "bool"
        }
      ],
      "name": "setApprovalForAll",
      "outputs": [],
      "stateMutability": "nonpayable",
      "type": "function"
    },
    {
      "inputs": [
        {
          "internalType": "bytes4",
          "name": "interfaceId",
          "type": "bytes4"
        }
      ],
      "name": "supportsInterface",
      "outputs": [
        {
          "internalType": "bool",
          "name": "",
          "type": "bool"
        }
      ],
      "stateMutability": "view",
      "type": "function"
    },
    {
      "inputs": [],
      "name": "symbol",
      "outputs": [
        {
          "internalType": "string",
          "name": "",
          "type": "string"
        }
      ],
      "stateMutability": "view",
      "type": "function"
    },
    {
      "inputs": [
        {
          "internalType": "uint256",
          "name": "tokenId",
          "type": "uint256"
        }
      ],
      "name": "tablelandURI",
      "outputs": [
        {
          "internalType": "string",
          "name": "",
          "type": "string"
        }
      ],
      "stateMutability": "view",
      "type": "function"
    },
    {
      "inputs": [
        {
          "internalType": "uint256",
          "name": "tokenId",
          "type": "uint256"
        }
      ],
      "name": "tokenURI",
      "outputs": [
        {
          "internalType": "string",
          "name": "",
          "type": "string"
        }
      ],
      "stateMutability": "view",
      "type": "function"
    },
    {
      "inputs": [],
      "name": "totalSupply",
      "outputs": [
        {
          "internalType": "uint256",
          "name": "",
          "type": "uint256"
        }
      ],
      "stateMutability": "view",
      "type": "function"
    },
    {
      "inputs": [
        {
          "internalType": "address",
          "name": "from",
          "type": "address"
        },
        {
          "internalType": "address",
          "name": "to",
          "type": "address"
        },
        {
          "internalType": "uint256",
          "name": "tokenId",
          "type": "uint256"
        }
      ],
      "name": "transferFrom",
      "outputs": [],
      "stateMutability": "nonpayable",
      "type": "function"
    },
    {
      "inputs": [
        {
          "internalType": "address",
          "name": "newOwner",
          "type": "address"
        }
      ],
      "name": "transferOwnership",
      "outputs": [],
      "stateMutability": "nonpayable",
      "type": "function"
    }
  ],
  "transactionHash": "0xed77913d46c7967e7bebb73002faadcebb2b2e504c4b938dac8f44d7478c7b0b",
  "args": [
    "0x4b48841d4b32C4650E4ABc117A03FE8B51f38F68",
    "ipfs://bafkreicbxyxbbip2ustrh7vp6ce565jyt5wnsid3bmrnbor7ngsqpe7fqu"
  ],
  "numDeployments": 6,
  "solcInputHash": "8942fb7a106c4ccaef7dad6f741b520c",
  "bytecode": "0x60e0604052602a608081815290620025c560a03980516200002991600991602090910190620003ce565b5060408051808201909152601180825270756e626c6f676765645f6861636b66735f60781b60209092019182526200006491600d91620003ce565b503480156200007257600080fd5b50604051620025ef380380620025ef8339810160408190526200009591620004bd565b604080518082018252600c81526b155b989b1bd9d9d95913919560a21b60208083019182528351808501909452600384526255424760e81b908401528151919291620000e491600291620003ce565b508051620000fa906003906020840190620003ce565b505060008055506200010c336200025f565b600a80546001600160a01b0319166001600160a01b038416908117909155633a9151b030600d6200014946620002b1602090811b62000b3017901c565b6040516020016200015c92919062000677565b6040516020818303038152906040526040518363ffffffff1660e01b81526004016200018a9291906200073e565b6020604051808303816000875af1158015620001aa573d6000803e3d6000fd5b505050506040513d601f19601f82011682018060405250810190620001d0919062000782565b600c81905550600d620001ee46620002b160201b62000b301760201c565b62000206600c54620002b160201b62000b301760201c565b6040516020016200021a939291906200079c565b604051602081830303815290604052600b908051906020019062000240929190620003ce565b5080516200025690600e906020840190620003ce565b505050620008ab565b600880546001600160a01b038381166001600160a01b0319831681179093556040519116919082907f8be0079c531659141344cd1fd0a4f28419497f9722a3daafe3b4186f6b6457e090600090a35050565b606081620002d65750506040805180820190915260018152600360fc1b602082015290565b8160005b8115620003065780620002ed81620007fe565b9150620002fe9050600a8362000832565b9150620002da565b6000816001600160401b0381111562000323576200032362000474565b6040519080825280601f01601f1916602001820160405280156200034e576020820181803683370190505b5090505b8415620003c6576200036660018362000849565b915062000375600a8662000863565b620003829060306200087a565b60f81b8183815181106200039a576200039a62000895565b60200101906001600160f81b031916908160001a905350620003be600a8662000832565b945062000352565b949350505050565b828054620003dc9062000598565b90600052602060002090601f0160209004810192826200040057600085556200044b565b82601f106200041b57805160ff19168380011785556200044b565b828001600101855582156200044b579182015b828111156200044b5782518255916020019190600101906200042e565b50620004599291506200045d565b5090565b5b808211156200045957600081556001016200045e565b634e487b7160e01b600052604160045260246000fd5b60005b83811015620004a75781810151838201526020016200048d565b83811115620004b7576000848401525b50505050565b60008060408385031215620004d157600080fd5b82516001600160a01b0381168114620004e957600080fd5b60208401519092506001600160401b03808211156200050757600080fd5b818501915085601f8301126200051c57600080fd5b81518181111562000531576200053162000474565b604051601f8201601f19908116603f011681019083821181831017156200055c576200055c62000474565b816040528281528860208487010111156200057657600080fd5b620005898360208301602088016200048a565b80955050505050509250929050565b600181811c90821680620005ad57607f821691505b60208210811415620005cf57634e487b7160e01b600052602260045260246000fd5b50919050565b8054600090600181811c9080831680620005f057607f831692505b60208084108214156200061357634e487b7160e01b600052602260045260246000fd5b8180156200062a57600181146200063c576200066b565b60ff198616895284890196506200066b565b60008881526020902060005b86811015620006635781548b82015290850190830162000648565b505084890196505b50505050505092915050565b6c021a922a0aa22902a20a126229609d1b815260006200069b600d830185620005d5565b8351620006ad8183602088016200048a565b7f202861727469636c65496420696e742c207469746c6520746578742c2074616791019081527f5f3120746578742c207461675f3220746578742c207461675f3320746578742c60208201527f20617574686f7220746578742c206970667343696420746578742c2074696d6560408201526a7374616d7020696e74293b60a81b6060820152606b01949350505050565b60018060a01b038316815260406020820152600082518060408401526200076d8160608501602087016200048a565b601f01601f1916919091016060019392505050565b6000602082840312156200079557600080fd5b5051919050565b6000620007aa8286620005d5565b8451620007bc8183602089016200048a565b605f60f81b91019081528351620007db8160018401602088016200048a565b0160010195945050505050565b634e487b7160e01b600052601160045260246000fd5b6000600019821415620008155762000815620007e8565b5060010190565b634e487b7160e01b600052601260045260246000fd5b6000826200084457620008446200081c565b500490565b6000828210156200085e576200085e620007e8565b500390565b6000826200087557620008756200081c565b500690565b60008219821115620008905762000890620007e8565b500190565b634e487b7160e01b600052603260045260246000fd5b611d0a80620008bb6000396000f3fe608060405234801561001057600080fd5b506004361061012c5760003560e01c806370a08231116100ad578063a22cb46511610071578063a22cb4651461025f578063b88d4fde14610272578063c87b56dd14610285578063e985e9c514610298578063f2fde38b146102d457600080fd5b806370a0823114610218578063715018a61461022b57806386833e91146102335780638da5cb5b1461024657806395d89b411461025757600080fd5b806318160ddd116100f457806318160ddd146101b657806323b872dd146101cc57806342842e0e146101df578063456fb54c146101f25780636352211e1461020557600080fd5b806301ffc9a71461013157806303ee438c1461015957806306fdde031461016e578063081812fc14610176578063095ea7b3146101a1575b600080fd5b61014461013f3660046112ea565b6102e7565b60405190151581526020015b60405180910390f35b610161610339565b604051610150919061135f565b610161610370565b610189610184366004611372565b610402565b6040516001600160a01b039091168152602001610150565b6101b46101af3660046113a7565b610446565b005b600154600054035b604051908152602001610150565b6101b46101da3660046113d1565b6104e6565b6101b46101ed3660046113d1565b610677565b610161610200366004611372565b610697565b610189610213366004611372565b61072d565b6101be61022636600461140d565b610738565b6101b4610787565b6101b46102413660046114d4565b61079b565b6008546001600160a01b0316610189565b610161610919565b6101b461026d3660046115a6565b610928565b6101b46102803660046115e2565b6109be565b610161610293366004611372565b610a08565b6101446102a636600461165e565b6001600160a01b03918216600090815260076020908152604080832093909416825291909152205460ff1690565b6101b46102e236600461140d565b610ab7565b60006301ffc9a760e01b6001600160e01b03198316148061031857506380ac58cd60e01b6001600160e01b03198316145b806103335750635b5e139f60e01b6001600160e01b03198316145b92915050565b60606000610345610c36565b905080600b60405160200161035b929190611782565b60405160208183030381529060405291505090565b60606002805461037f906116ad565b80601f01602080910402602001604051908101604052809291908181526020018280546103ab906116ad565b80156103f85780601f106103cd576101008083540402835291602001916103f8565b820191906000526020600020905b8154815290600101906020018083116103db57829003601f168201915b5050505050905090565b600061040d82610c45565b61042a576040516333d1c03960e21b815260040160405180910390fd5b506000908152600660205260409020546001600160a01b031690565b60006104518261072d565b9050336001600160a01b0382161461048a5761046d81336102a6565b61048a576040516367d9dca160e11b815260040160405180910390fd5b60008281526006602052604080822080546001600160a01b0319166001600160a01b0387811691821790925591518593918516917f8c5be1e5ebec7d5bd14f71427d1e84f3dd0314c0f7b2291e5b200ac8c7c3b92591a4505050565b60006104f182610c6c565b9050836001600160a01b0316816001600160a01b0316146105245760405162a1148160e81b815260040160405180910390fd5b60008281526006602052604090208054338082146001600160a01b038816909114176105715761055486336102a6565b61057157604051632ce44b5f60e11b815260040160405180910390fd5b6001600160a01b03851661059857604051633a954ecd60e21b815260040160405180910390fd5b80156105a357600082555b6001600160a01b038681166000908152600560205260408082208054600019019055918716808252919020805460010190554260a01b17600160e11b17600085815260046020526040902055600160e11b831661062e576001840160008181526004602052604090205461062c57600054811461062c5760008181526004602052604090208490555b505b83856001600160a01b0316876001600160a01b03167fddf252ad1be2c89b69c2b068fc378daa952ba7f163c4a11628f55a4df523b3ef60405160405180910390a4505050505050565b610692838383604051806020016040528060008152506109be565b505050565b60606106a282610c45565b6106c75760405162461bcd60e51b81526004016106be906117c8565b60405180910390fd5b60006106d1610c36565b90506000600b6106e085610b30565b6040516020016106f1929190611819565b6040516020818303038152906040529050818160405160200161071592919061187c565b60405160208183030381529060405292505050919050565b600061033382610c6c565b60006001600160a01b038216610761576040516323d3ad8160e21b815260040160405180910390fd5b506001600160a01b031660009081526005602052604090205467ffffffffffffffff1690565b61078f610cd4565b6107996000610d2e565b565b600f816040516107ab91906118ab565b9081526040519081900360200190205460ff161561081e5760405162461bcd60e51b815260206004820152602a60248201527f556e626c6f676765644e46543a204349442068617320616c7265616479206265604482015269656e206d696e7465642160b01b60648201526084016106be565b600a54600c546000916001600160a01b03169063eaf5d04e903090600b61084486610b30565b8b8b8b8b610853336014610d80565b8c61085d42610b30565b604051602001610875999897969594939291906118c7565b6040516020818303038152906040526040518463ffffffff1660e01b81526004016108a293929190611a24565b600060405180830381600087803b1580156108bc57600080fd5b505af11580156108d0573d6000803e3d6000fd5b505050506108df336001610f1c565b6001600f836040516108f191906118ab565b908152604051908190036020019020805491151560ff19909216919091179055505050505050565b60606003805461037f906116ad565b6001600160a01b0382163314156109525760405163b06307db60e01b815260040160405180910390fd5b3360008181526007602090815260408083206001600160a01b03871680855290835292819020805460ff191686151590811790915590519081529192917f17307eab39ab6107e8899845ad3d59bd9653f200f220920489ca2b5937696c31910160405180910390a35050565b6109c98484846104e6565b6001600160a01b0383163b15610a02576109e584848484610f3a565b610a02576040516368d2bf6b60e11b815260040160405180910390fd5b50505050565b6060610a1382610c45565b610a2f5760405162461bcd60e51b81526004016106be906117c8565b6000610a3a83610b30565b610a4384610b30565b600e604051602001610a5793929190611a4b565b6040516020818303038152906040529050610a9081604051602001610a7c91906118ab565b604051602081830303815290604052611022565b604051602001610aa09190611b0b565b604051602081830303815290604052915050919050565b610abf610cd4565b6001600160a01b038116610b245760405162461bcd60e51b815260206004820152602660248201527f4f776e61626c653a206e6577206f776e657220697320746865207a65726f206160448201526564647265737360d01b60648201526084016106be565b610b2d81610d2e565b50565b606081610b545750506040805180820190915260018152600360fc1b602082015290565b8160005b8115610b7e5780610b6881611b66565b9150610b779050600a83611b97565b9150610b58565b60008167ffffffffffffffff811115610b9957610b99611428565b6040519080825280601f01601f191660200182016040528015610bc3576020820181803683370190505b5090505b8415610c2e57610bd8600183611bab565b9150610be5600a86611bc2565b610bf0906030611bd6565b60f81b818381518110610c0557610c05611bee565b60200101906001600160f81b031916908160001a905350610c27600a86611b97565b9450610bc7565b949350505050565b60606009805461037f906116ad565b6000805482108015610333575050600090815260046020526040902054600160e01b161590565b600081600054811015610cbb57600081815260046020526040902054600160e01b8116610cb9575b80610cb2575060001901600081815260046020526040902054610c94565b9392505050565b505b604051636f96cda160e11b815260040160405180910390fd5b6008546001600160a01b031633146107995760405162461bcd60e51b815260206004820181905260248201527f4f776e61626c653a2063616c6c6572206973206e6f7420746865206f776e657260448201526064016106be565b600880546001600160a01b038381166001600160a01b0319831681179093556040519116919082907f8be0079c531659141344cd1fd0a4f28419497f9722a3daafe3b4186f6b6457e090600090a35050565b60606000610d8f836002611c04565b610d9a906002611bd6565b67ffffffffffffffff811115610db257610db2611428565b6040519080825280601f01601f191660200182016040528015610ddc576020820181803683370190505b509050600360fc1b81600081518110610df757610df7611bee565b60200101906001600160f81b031916908160001a905350600f60fb1b81600181518110610e2657610e26611bee565b60200101906001600160f81b031916908160001a9053506000610e4a846002611c04565b610e55906001611bd6565b90505b6001811115610ecd576f181899199a1a9b1b9c1cb0b131b232b360811b85600f1660108110610e8957610e89611bee565b1a60f81b828281518110610e9f57610e9f611bee565b60200101906001600160f81b031916908160001a90535060049490941c93610ec681611c23565b9050610e58565b508315610cb25760405162461bcd60e51b815260206004820181905260248201527f537472696e67733a20686578206c656e67746820696e73756666696369656e7460448201526064016106be565b610f3682826040518060200160405280600081525061118a565b5050565b604051630a85bd0160e11b81526000906001600160a01b0385169063150b7a0290610f6f903390899088908890600401611c3a565b6020604051808303816000875af1925050508015610faa575060408051601f3d908101601f19168201909252610fa791810190611c77565b60015b611005573d808015610fd8576040519150601f19603f3d011682016040523d82523d6000602084013e610fdd565b606091505b508051610ffd576040516368d2bf6b60e11b815260040160405180910390fd5b805181602001fd5b6001600160e01b031916630a85bd0160e11b149050949350505050565b606081516000141561104257505060408051602081019091526000815290565b6000604051806060016040528060408152602001611c9560409139905060006003845160026110719190611bd6565b61107b9190611b97565b611086906004611c04565b90506000611095826020611bd6565b67ffffffffffffffff8111156110ad576110ad611428565b6040519080825280601f01601f1916602001820160405280156110d7576020820181803683370190505b509050818152600183018586518101602084015b818310156111455760039283018051603f601282901c811687015160f890811b8552600c83901c8216880151811b6001860152600683901c8216880151811b60028601529116860151901b938201939093526004016110eb565b60038951066001811461115f57600281146111705761117c565b613d3d60f01b60011983015261117c565b603d60f81b6000198301525b509398975050505050505050565b61119483836111f7565b6001600160a01b0383163b15610692576000548281035b6111be6000868380600101945086610f3a565b6111db576040516368d2bf6b60e11b815260040160405180910390fd5b8181106111ab5781600054146111f057600080fd5b5050505050565b6000546001600160a01b03831661122057604051622e076360e81b815260040160405180910390fd5b8161123e5760405163b562e8dd60e01b815260040160405180910390fd5b6001600160a01b038316600081815260056020526040902080546801000000000000000185020190554260a01b6001841460e11b1717600082815260046020526040902055808281015b6040516001830192906001600160a01b038716906000907fddf252ad1be2c89b69c2b068fc378daa952ba7f163c4a11628f55a4df523b3ef908290a48082106112885760005550505050565b6001600160e01b031981168114610b2d57600080fd5b6000602082840312156112fc57600080fd5b8135610cb2816112d4565b60005b8381101561132257818101518382015260200161130a565b83811115610a025750506000910152565b6000815180845261134b816020860160208601611307565b601f01601f19169290920160200192915050565b602081526000610cb26020830184611333565b60006020828403121561138457600080fd5b5035919050565b80356001600160a01b03811681146113a257600080fd5b919050565b600080604083850312156113ba57600080fd5b6113c38361138b565b946020939093013593505050565b6000806000606084860312156113e657600080fd5b6113ef8461138b565b92506113fd6020850161138b565b9150604084013590509250925092565b60006020828403121561141f57600080fd5b610cb28261138b565b634e487b7160e01b600052604160045260246000fd5b600067ffffffffffffffff8084111561145957611459611428565b604051601f8501601f19908116603f0116810190828211818310171561148157611481611428565b8160405280935085815286868601111561149a57600080fd5b858560208301376000602087830101525050509392505050565b600082601f8301126114c557600080fd5b610cb28383356020850161143e565b600080600080600060a086880312156114ec57600080fd5b853567ffffffffffffffff8082111561150457600080fd5b61151089838a016114b4565b9650602088013591508082111561152657600080fd5b61153289838a016114b4565b9550604088013591508082111561154857600080fd5b61155489838a016114b4565b9450606088013591508082111561156a57600080fd5b61157689838a016114b4565b9350608088013591508082111561158c57600080fd5b50611599888289016114b4565b9150509295509295909350565b600080604083850312156115b957600080fd5b6115c28361138b565b9150602083013580151581146115d757600080fd5b809150509250929050565b600080600080608085870312156115f857600080fd5b6116018561138b565b935061160f6020860161138b565b925060408501359150606085013567ffffffffffffffff81111561163257600080fd5b8501601f8101871361164357600080fd5b6116528782356020840161143e565b91505092959194509250565b6000806040838503121561167157600080fd5b61167a8361138b565b91506116886020840161138b565b90509250929050565b600081516116a3818560208601611307565b9290920192915050565b600181811c908216806116c157607f821691505b602082108114156116e257634e487b7160e01b600052602260045260246000fd5b50919050565b8054600090600181811c908083168061170257607f831692505b602080841082141561172457634e487b7160e01b600052602260045260246000fd5b818015611738576001811461174957611776565b60ff19861689528489019650611776565b60008881526020902060005b8681101561176e5781548b820152908501908301611755565b505084890196505b50505050505092915050565b60008351611794818460208801611307565b73053454c4543542532302a25323046524f4d2532360641b9083019081526117bf60148201856116e8565b95945050505050565b60208082526031908201527f45524337323155524953746f726167653a2055524920717565727920666f72206040820152703737b732bc34b9ba32b73a103a37b5b2b760791b606082015260800190565b73053454c4543542532302a25323046524f4d2532360641b8152600061184260148301856116e8565b74253230574845524525323061727469636c6549643d60581b81528351611870816015840160208801611307565b01601501949350505050565b6000835161188e818460208801611307565b8351908301906118a2818360208801611307565b01949350505050565b600082516118bd818460208701611307565b9190910192915050565b6b024a729a2a92a1024a72a27960a51b815260006118e8600c83018c6116e8565b7f202861727469636c6549642c207469746c652c207461675f312c207461675f3281527f2c207461675f332c20617574686f722c2069706673436964292056414c554553602082015261040560f31b60408201528a5161194f816042840160208f01611307565b0161196260428201622c202760e81b9052565b61196f604582018b611691565b63272c202760e01b8152905060046119898183018b611691565b63272c202760e01b815291506119a18183018a611691565b63272c202760e01b815291506119b981830189611691565b63272c202760e01b815291506119d181830188611691565b63272c202760e01b815291506119e981830187611691565b63272c202760e01b81529150611a0181830186611691565b915050611a128161272960f01b9052565b6002019b9a5050505050505050505050565b60018060a01b03841681528260208201526060604082015260006117bf6060830184611333565b7f7b226e616d65223a22556e626c6f676765642041727469636c65202300000000815260008451611a8381601c850160208901611307565b7f222c20226465736372697074696f6e223a22556e626c6f676765642041727469601c9184019182015264636c65202360d81b603c8201528451611ace816041840160208901611307565b6c1116101134b6b0b3b2911d101160991b60419290910191820152611af6604e8201856116e8565b61227d60f01b81526002019695505050505050565b7f646174613a6170706c69636174696f6e2f6a736f6e3b6261736536342c000000815260008251611b4381601d850160208701611307565b91909101601d0192915050565b634e487b7160e01b600052601160045260246000fd5b6000600019821415611b7a57611b7a611b50565b5060010190565b634e487b7160e01b600052601260045260246000fd5b600082611ba657611ba6611b81565b500490565b600082821015611bbd57611bbd611b50565b500390565b600082611bd157611bd1611b81565b500690565b60008219821115611be957611be9611b50565b500190565b634e487b7160e01b600052603260045260246000fd5b6000816000190483118215151615611c1e57611c1e611b50565b500290565b600081611c3257611c32611b50565b506000190190565b6001600160a01b0385811682528416602082015260408101839052608060608201819052600090611c6d90830184611333565b9695505050505050565b600060208284031215611c8957600080fd5b8151610cb2816112d456fe4142434445464748494a4b4c4d4e4f505152535455565758595a6162636465666768696a6b6c6d6e6f707172737475767778797a303132333435363738392b2fa264697066735822122048347c45433c2ffb3ba9b67f48d374ad08fbc838d2ff87892e196b277091757b64736f6c634300080c003368747470733a2f2f746573746e65742e7461626c656c616e642e6e6574776f726b2f71756572793f733d",
  "devdoc": {
    "kind": "dev",
    "methods": {
      "approve(address,uint256)": {
        "details": "See {IERC721-approve}."
      },
      "balanceOf(address)": {
        "details": "See {IERC721-balanceOf}."
      },
      "getApproved(uint256)": {
        "details": "See {IERC721-getApproved}."
      },
      "isApprovedForAll(address,address)": {
        "details": "See {IERC721-isApprovedForAll}."
      },
      "mint(string,string,string,string,string)": {
        "details": "mint allows anyone to mint a token in this project. Any time a token is minted, a new row of metadata will be dynamically inserted into the metadata table."
      },
      "name()": {
        "details": "See {IERC721Metadata-name}."
      },
      "owner()": {
        "details": "Returns the address of the current owner."
      },
      "ownerOf(uint256)": {
        "details": "See {IERC721-ownerOf}."
      },
      "renounceOwnership()": {
        "details": "Leaves the contract without owner. It will not be possible to call `onlyOwner` functions anymore. Can only be called by the current owner. NOTE: Renouncing ownership will leave the contract without an owner, thereby removing any functionality that is only available to the owner."
      },
      "safeTransferFrom(address,address,uint256)": {
        "details": "See {IERC721-safeTransferFrom}."
      },
      "safeTransferFrom(address,address,uint256,bytes)": {
        "details": "See {IERC721-safeTransferFrom}."
      },
      "setApprovalForAll(address,bool)": {
        "details": "See {IERC721-setApprovalForAll}."
      },
      "supportsInterface(bytes4)": {
        "details": "See {IERC165-supportsInterface}."
      },
      "symbol()": {
        "details": "See {IERC721Metadata-symbol}."
      },
      "tokenURI(uint256)": {
        "details": "tokenURI is an example of how to turn a row in your table back into erc721 compliant metadata JSON. Here, we do a simple SELECT statement with function that converts the result into json."
      },
      "totalSupply()": {
        "details": "Returns the total number of tokens in existence. Burned tokens will reduce the count. To get the total number of tokens minted, please see `_totalMinted`."
      },
      "transferFrom(address,address,uint256)": {
        "details": "Transfers `tokenId` from `from` to `to`. Requirements: - `to` cannot be the zero address. - `tokenId` token must be owned by `from`. Emits a {Transfer} event."
      },
      "transferOwnership(address)": {
        "details": "Transfers ownership of the contract to a new account (`newOwner`). Can only be called by the current owner."
      }
    },
    "version": 1
  },
  "userdoc": {
    "errors": {
      "ApprovalCallerNotOwnerNorApproved()": [
        {
          "notice": "The caller must own the token or be an approved operator."
        }
      ],
      "ApprovalQueryForNonexistentToken()": [
        {
          "notice": "The token does not exist."
        }
      ],
      "ApproveToCaller()": [
        {
          "notice": "The caller cannot approve to their own address."
        }
      ],
      "BalanceQueryForZeroAddress()": [
        {
          "notice": "Cannot query the balance for the zero address."
        }
      ],
      "MintERC2309QuantityExceedsLimit()": [
        {
          "notice": "The `quantity` minted with ERC2309 exceeds the safety limit."
        }
      ],
      "MintToZeroAddress()": [
        {
          "notice": "Cannot mint to the zero address."
        }
      ],
      "MintZeroQuantity()": [
        {
          "notice": "The quantity of tokens minted must be more than zero."
        }
      ],
      "OwnerQueryForNonexistentToken()": [
        {
          "notice": "The token does not exist."
        }
      ],
      "OwnershipNotInitializedForExtraData()": [
        {
          "notice": "The `extraData` cannot be set on an unintialized ownership slot."
        }
      ],
      "TransferCallerNotOwnerNorApproved()": [
        {
          "notice": "The caller must own the token or be an approved operator."
        }
      ],
      "TransferFromIncorrectOwner()": [
        {
          "notice": "The token must be owned by `from`."
        }
      ],
      "TransferToNonERC721ReceiverImplementer()": [
        {
          "notice": "Cannot safely transfer to a contract that does not implement the ERC721Receiver interface."
        }
      ],
      "TransferToZeroAddress()": [
        {
          "notice": "Cannot transfer to the zero address."
        }
      ],
      "URIQueryForNonexistentToken()": [
        {
          "notice": "The token does not exist."
        }
      ]
    },
    "kind": "user",
    "methods": {
      "tablelandURI(uint256)": {
        "notice": "Get the URL String of the tableland query"
      }
    },
    "version": 1
  },
  "storageLayout": {
    "storage": [
      {
        "astId": 1836,
        "contract": "contracts/UnbloggedNFT.sol:UnbloggedNFT",
        "label": "_currentIndex",
        "offset": 0,
        "slot": "0",
        "type": "t_uint256"
      },
      {
        "astId": 1838,
        "contract": "contracts/UnbloggedNFT.sol:UnbloggedNFT",
        "label": "_burnCounter",
        "offset": 0,
        "slot": "1",
        "type": "t_uint256"
      },
      {
        "astId": 1840,
        "contract": "contracts/UnbloggedNFT.sol:UnbloggedNFT",
        "label": "_name",
        "offset": 0,
        "slot": "2",
        "type": "t_string_storage"
      },
      {
        "astId": 1842,
        "contract": "contracts/UnbloggedNFT.sol:UnbloggedNFT",
        "label": "_symbol",
        "offset": 0,
        "slot": "3",
        "type": "t_string_storage"
      },
      {
        "astId": 1846,
        "contract": "contracts/UnbloggedNFT.sol:UnbloggedNFT",
        "label": "_packedOwnerships",
        "offset": 0,
        "slot": "4",
        "type": "t_mapping(t_uint256,t_uint256)"
      },
      {
        "astId": 1850,
        "contract": "contracts/UnbloggedNFT.sol:UnbloggedNFT",
        "label": "_packedAddressData",
        "offset": 0,
        "slot": "5",
        "type": "t_mapping(t_address,t_uint256)"
      },
      {
        "astId": 1854,
        "contract": "contracts/UnbloggedNFT.sol:UnbloggedNFT",
        "label": "_tokenApprovals",
        "offset": 0,
        "slot": "6",
        "type": "t_mapping(t_uint256,t_address)"
      },
      {
        "astId": 1860,
        "contract": "contracts/UnbloggedNFT.sol:UnbloggedNFT",
        "label": "_operatorApprovals",
        "offset": 0,
        "slot": "7",
        "type": "t_mapping(t_address,t_mapping(t_address,t_bool))"
      },
      {
        "astId": 1346,
        "contract": "contracts/UnbloggedNFT.sol:UnbloggedNFT",
        "label": "_owner",
        "offset": 0,
        "slot": "8",
        "type": "t_address"
      },
      {
        "astId": 4224,
        "contract": "contracts/UnbloggedNFT.sol:UnbloggedNFT",
        "label": "_baseURIString",
        "offset": 0,
        "slot": "9",
        "type": "t_string_storage"
      },
      {
        "astId": 4227,
        "contract": "contracts/UnbloggedNFT.sol:UnbloggedNFT",
        "label": "_tableland",
        "offset": 0,
        "slot": "10",
        "type": "t_contract(ITablelandTables)3739"
      },
      {
        "astId": 4229,
        "contract": "contracts/UnbloggedNFT.sol:UnbloggedNFT",
        "label": "_metadataTable",
        "offset": 0,
        "slot": "11",
        "type": "t_string_storage"
      },
      {
        "astId": 4231,
        "contract": "contracts/UnbloggedNFT.sol:UnbloggedNFT",
        "label": "_metadataTableId",
        "offset": 0,
        "slot": "12",
        "type": "t_uint256"
      },
      {
        "astId": 4234,
        "contract": "contracts/UnbloggedNFT.sol:UnbloggedNFT",
        "label": "_tablePrefix",
        "offset": 0,
        "slot": "13",
        "type": "t_string_storage"
      },
      {
        "astId": 4236,
        "contract": "contracts/UnbloggedNFT.sol:UnbloggedNFT",
        "label": "_defaultNFTImage",
        "offset": 0,
        "slot": "14",
        "type": "t_string_storage"
      },
      {
        "astId": 4240,
        "contract": "contracts/UnbloggedNFT.sol:UnbloggedNFT",
        "label": "cidMinted",
        "offset": 0,
        "slot": "15",
        "type": "t_mapping(t_string_memory_ptr,t_bool)"
      }
    ],
    "types": {
      "t_address": {
        "encoding": "inplace",
        "label": "address",
        "numberOfBytes": "20"
      },
      "t_bool": {
        "encoding": "inplace",
        "label": "bool",
        "numberOfBytes": "1"
      },
      "t_contract(ITablelandTables)3739": {
        "encoding": "inplace",
        "label": "contract ITablelandTables",
        "numberOfBytes": "20"
      },
      "t_mapping(t_address,t_bool)": {
        "encoding": "mapping",
        "key": "t_address",
        "label": "mapping(address => bool)",
        "numberOfBytes": "32",
        "value": "t_bool"
      },
      "t_mapping(t_address,t_mapping(t_address,t_bool))": {
        "encoding": "mapping",
        "key": "t_address",
        "label": "mapping(address => mapping(address => bool))",
        "numberOfBytes": "32",
        "value": "t_mapping(t_address,t_bool)"
      },
      "t_mapping(t_address,t_uint256)": {
        "encoding": "mapping",
        "key": "t_address",
        "label": "mapping(address => uint256)",
        "numberOfBytes": "32",
        "value": "t_uint256"
      },
      "t_mapping(t_string_memory_ptr,t_bool)": {
        "encoding": "mapping",
        "key": "t_string_memory_ptr",
        "label": "mapping(string => bool)",
        "numberOfBytes": "32",
        "value": "t_bool"
      },
      "t_mapping(t_uint256,t_address)": {
        "encoding": "mapping",
        "key": "t_uint256",
        "label": "mapping(uint256 => address)",
        "numberOfBytes": "32",
        "value": "t_address"
      },
      "t_mapping(t_uint256,t_uint256)": {
        "encoding": "mapping",
        "key": "t_uint256",
        "label": "mapping(uint256 => uint256)",
        "numberOfBytes": "32",
        "value": "t_uint256"
      },
      "t_string_memory_ptr": {
        "encoding": "bytes",
        "label": "string",
        "numberOfBytes": "32"
      },
      "t_string_storage": {
        "encoding": "bytes",
        "label": "string",
        "numberOfBytes": "32"
      },
      "t_uint256": {
        "encoding": "inplace",
        "label": "uint256",
        "numberOfBytes": "32"
      }
    }
  }
}