{
  "address": "0x94B8688498Ba6BdD2a62868c98d70CCED22Aa8dD",
  "abi": [
    {
      "inputs": [
        {
          "internalType": "address",
          "name": "registry",
          "type": "address"
        },
        {
          "internalType": "string",
          "name": "defaultImage",
          "type": "string"
        }
      ],
      "stateMutability": "nonpayable",
      "type": "constructor"
    },
    {
      "inputs": [],
      "name": "ApprovalCallerNotOwnerNorApproved",
      "type": "error"
    },
    {
      "inputs": [],
      "name": "ApprovalQueryForNonexistentToken",
      "type": "error"
    },
    {
      "inputs": [],
      "name": "ApproveToCaller",
      "type": "error"
    },
    {
      "inputs": [],
      "name": "BalanceQueryForZeroAddress",
      "type": "error"
    },
    {
      "inputs": [],
      "name": "MintERC2309QuantityExceedsLimit",
      "type": "error"
    },
    {
      "inputs": [],
      "name": "MintToZeroAddress",
      "type": "error"
    },
    {
      "inputs": [],
      "name": "MintZeroQuantity",
      "type": "error"
    },
    {
      "inputs": [],
      "name": "OwnerQueryForNonexistentToken",
      "type": "error"
    },
    {
      "inputs": [],
      "name": "OwnershipNotInitializedForExtraData",
      "type": "error"
    },
    {
      "inputs": [],
      "name": "TransferCallerNotOwnerNorApproved",
      "type": "error"
    },
    {
      "inputs": [],
      "name": "TransferFromIncorrectOwner",
      "type": "error"
    },
    {
      "inputs": [],
      "name": "TransferToNonERC721ReceiverImplementer",
      "type": "error"
    },
    {
      "inputs": [],
      "name": "TransferToZeroAddress",
      "type": "error"
    },
    {
      "inputs": [],
      "name": "URIQueryForNonexistentToken",
      "type": "error"
    },
    {
      "anonymous": false,
      "inputs": [
        {
          "indexed": true,
          "internalType": "address",
          "name": "owner",
          "type": "address"
        },
        {
          "indexed": true,
          "internalType": "address",
          "name": "approved",
          "type": "address"
        },
        {
          "indexed": true,
          "internalType": "uint256",
          "name": "tokenId",
          "type": "uint256"
        }
      ],
      "name": "Approval",
      "type": "event"
    },
    {
      "anonymous": false,
      "inputs": [
        {
          "indexed": true,
          "internalType": "address",
          "name": "owner",
          "type": "address"
        },
        {
          "indexed": true,
          "internalType": "address",
          "name": "operator",
          "type": "address"
        },
        {
          "indexed": false,
          "internalType": "bool",
          "name": "approved",
          "type": "bool"
        }
      ],
      "name": "ApprovalForAll",
      "type": "event"
    },
    {
      "anonymous": false,
      "inputs": [
        {
          "indexed": true,
          "internalType": "uint256",
          "name": "fromTokenId",
          "type": "uint256"
        },
        {
          "indexed": false,
          "internalType": "uint256",
          "name": "toTokenId",
          "type": "uint256"
        },
        {
          "indexed": true,
          "internalType": "address",
          "name": "from",
          "type": "address"
        },
        {
          "indexed": true,
          "internalType": "address",
          "name": "to",
          "type": "address"
        }
      ],
      "name": "ConsecutiveTransfer",
      "type": "event"
    },
    {
      "anonymous": false,
      "inputs": [
        {
          "indexed": true,
          "internalType": "address",
          "name": "previousOwner",
          "type": "address"
        },
        {
          "indexed": true,
          "internalType": "address",
          "name": "newOwner",
          "type": "address"
        }
      ],
      "name": "OwnershipTransferred",
      "type": "event"
    },
    {
      "anonymous": false,
      "inputs": [
        {
          "indexed": true,
          "internalType": "address",
          "name": "from",
          "type": "address"
        },
        {
          "indexed": true,
          "internalType": "address",
          "name": "to",
          "type": "address"
        },
        {
          "indexed": true,
          "internalType": "uint256",
          "name": "tokenId",
          "type": "uint256"
        }
      ],
      "name": "Transfer",
      "type": "event"
    },
    {
      "inputs": [
        {
          "internalType": "address",
          "name": "to",
          "type": "address"
        },
        {
          "internalType": "uint256",
          "name": "tokenId",
          "type": "uint256"
        }
      ],
      "name": "approve",
      "outputs": [],
      "stateMutability": "nonpayable",
      "type": "function"
    },
    {
      "inputs": [
        {
          "internalType": "address",
          "name": "owner",
          "type": "address"
        }
      ],
      "name": "balanceOf",
      "outputs": [
        {
          "internalType": "uint256",
          "name": "",
          "type": "uint256"
        }
      ],
      "stateMutability": "view",
      "type": "function"
    },
    {
      "inputs": [
        {
          "internalType": "uint256",
          "name": "tokenId",
          "type": "uint256"
        }
      ],
      "name": "getApproved",
      "outputs": [
        {
          "internalType": "address",
          "name": "",
          "type": "address"
        }
      ],
      "stateMutability": "view",
      "type": "function"
    },
    {
      "inputs": [
        {
          "internalType": "address",
          "name": "owner",
          "type": "address"
        },
        {
          "internalType": "address",
          "name": "operator",
          "type": "address"
        }
      ],
      "name": "isApprovedForAll",
      "outputs": [
        {
          "internalType": "bool",
          "name": "",
          "type": "bool"
        }
      ],
      "stateMutability": "view",
      "type": "function"
    },
    {
      "inputs": [],
      "name": "metadataURI",
      "outputs": [
        {
          "internalType": "string",
          "name": "",
          "type": "string"
        }
      ],
      "stateMutability": "view",
      "type": "function"
    },
    {
      "inputs": [
        {
          "internalType": "string",
          "name": "title",
          "type": "string"
        },
        {
          "internalType": "string",
          "name": "tag_1",
          "type": "string"
        },
        {
          "internalType": "string",
          "name": "tag_2",
          "type": "string"
        },
        {
          "internalType": "string",
          "name": "tag_3",
          "type": "string"
        },
        {
          "internalType": "string",
          "name": "ipfsCid",
          "type": "string"
        }
      ],
      "name": "mint",
      "outputs": [],
      "stateMutability": "nonpayable",
      "type": "function"
    },
    {
      "inputs": [],
      "name": "name",
      "outputs": [
        {
          "internalType": "string",
          "name": "",
          "type": "string"
        }
      ],
      "stateMutability": "view",
      "type": "function"
    },
    {
      "inputs": [],
      "name": "owner",
      "outputs": [
        {
          "internalType": "address",
          "name": "",
          "type": "address"
        }
      ],
      "stateMutability": "view",
      "type": "function"
    },
    {
      "inputs": [
        {
          "internalType": "uint256",
          "name": "tokenId",
          "type": "uint256"
        }
      ],
      "name": "ownerOf",
      "outputs": [
        {
          "internalType": "address",
          "name": "",
          "type": "address"
        }
      ],
      "stateMutability": "view",
      "type": "function"
    },
    {
      "inputs": [],
      "name": "renounceOwnership",
      "outputs": [],
      "stateMutability": "nonpayable",
      "type": "function"
    },
    {
      "inputs": [
        {
          "internalType": "address",
          "name": "from",
          "type": "address"
        },
        {
          "internalType": "address",
          "name": "to",
          "type": "address"
        },
        {
          "internalType": "uint256",
          "name": "tokenId",
          "type": "uint256"
        }
      ],
      "name": "safeTransferFrom",
      "outputs": [],
      "stateMutability": "nonpayable",
      "type": "function"
    },
    {
      "inputs": [
        {
          "internalType": "address",
          "name": "from",
          "type": "address"
        },
        {
          "internalType": "address",
          "name": "to",
          "type": "address"
        },
        {
          "internalType": "uint256",
          "name": "tokenId",
          "type": "uint256"
        },
        {
          "internalType": "bytes",
          "name": "_data",
          "type": "bytes"
        }
      ],
      "name": "safeTransferFrom",
      "outputs": [],
      "stateMutability": "nonpayable",
      "type": "function"
    },
    {
      "inputs": [
        {
          "internalType": "address",
          "name": "operator",
          "type": "address"
        },
        {
          "internalType": "bool",
          "name": "approved",
          "type": "bool"
        }
      ],
      "name": "setApprovalForAll",
      "outputs": [],
      "stateMutability": "nonpayable",
      "type": "function"
    },
    {
      "inputs": [
        {
          "internalType": "bytes4",
          "name": "interfaceId",
          "type": "bytes4"
        }
      ],
      "name": "supportsInterface",
      "outputs": [
        {
          "internalType": "bool",
          "name": "",
          "type": "bool"
        }
      ],
      "stateMutability": "view",
      "type": "function"
    },
    {
      "inputs": [],
      "name": "symbol",
      "outputs": [
        {
          "internalType": "string",
          "name": "",
          "type": "string"
        }
      ],
      "stateMutability": "view",
      "type": "function"
    },
    {
      "inputs": [
        {
          "internalType": "uint256",
          "name": "tokenId",
          "type": "uint256"
        }
      ],
      "name": "tablelandURI",
      "outputs": [
        {
          "internalType": "string",
          "name": "",
          "type": "string"
        }
      ],
      "stateMutability": "view",
      "type": "function"
    },
    {
      "inputs": [
        {
          "internalType": "uint256",
          "name": "tokenId",
          "type": "uint256"
        }
      ],
      "name": "tokenURI",
      "outputs": [
        {
          "internalType": "string",
          "name": "",
          "type": "string"
        }
      ],
      "stateMutability": "view",
      "type": "function"
    },
    {
      "inputs": [],
      "name": "totalSupply",
      "outputs": [
        {
          "internalType": "uint256",
          "name": "",
          "type": "uint256"
        }
      ],
      "stateMutability": "view",
      "type": "function"
    },
    {
      "inputs": [
        {
          "internalType": "address",
          "name": "from",
          "type": "address"
        },
        {
          "internalType": "address",
          "name": "to",
          "type": "address"
        },
        {
          "internalType": "uint256",
          "name": "tokenId",
          "type": "uint256"
        }
      ],
      "name": "transferFrom",
      "outputs": [],
      "stateMutability": "nonpayable",
      "type": "function"
    },
    {
      "inputs": [
        {
          "internalType": "address",
          "name": "newOwner",
          "type": "address"
        }
      ],
      "name": "transferOwnership",
      "outputs": [],
      "stateMutability": "nonpayable",
      "type": "function"
    },
    {
      "inputs": [
        {
          "internalType": "uint256",
          "name": "tokenId",
          "type": "uint256"
        },
        {
          "internalType": "string",
          "name": "ipfsCid",
          "type": "string"
        }
      ],
      "name": "update",
      "outputs": [],
      "stateMutability": "nonpayable",
      "type": "function"
    }
  ],
  "transactionHash": "0x662d7c5844045a0a3cbe8614bfed9ac1ddba779c5d024c87a6683875e9a07148",
  "args": [
    "0x4b48841d4b32C4650E4ABc117A03FE8B51f38F68",
    "ipfs://bafkreicbxyxbbip2ustrh7vp6ce565jyt5wnsid3bmrnbor7ngsqpe7fqu"
  ],
  "numDeployments": 10,
  "solcInputHash": "d3a45a4be5f4fb5319b8b1f30c40adae",
  "bytecode": "0x60e0604052602a6080818152906200284c60a03980516200002991600991602090910190620003ce565b5060408051808201909152601180825270756e626c6f676765645f6861636b66735f60781b60209092019182526200006491600d91620003ce565b503480156200007257600080fd5b5060405162002876380380620028768339810160408190526200009591620004bd565b604080518082018252600c81526b155b989b1bd9d9d95913919560a21b60208083019182528351808501909452600384526255424760e81b908401528151919291620000e491600291620003ce565b508051620000fa906003906020840190620003ce565b505060008055506200010c336200025f565b600a80546001600160a01b0319166001600160a01b038416908117909155633a9151b030600d6200014946620002b1602090811b62000c8617901c565b6040516020016200015c92919062000677565b6040516020818303038152906040526040518363ffffffff1660e01b81526004016200018a9291906200073e565b6020604051808303816000875af1158015620001aa573d6000803e3d6000fd5b505050506040513d601f19601f82011682018060405250810190620001d0919062000782565b600c81905550600d620001ee46620002b160201b62000c861760201c565b62000206600c54620002b160201b62000c861760201c565b6040516020016200021a939291906200079c565b604051602081830303815290604052600b908051906020019062000240929190620003ce565b5080516200025690600e906020840190620003ce565b505050620008ab565b600880546001600160a01b038381166001600160a01b0319831681179093556040519116919082907f8be0079c531659141344cd1fd0a4f28419497f9722a3daafe3b4186f6b6457e090600090a35050565b606081620002d65750506040805180820190915260018152600360fc1b602082015290565b8160005b8115620003065780620002ed81620007fe565b9150620002fe9050600a8362000832565b9150620002da565b6000816001600160401b0381111562000323576200032362000474565b6040519080825280601f01601f1916602001820160405280156200034e576020820181803683370190505b5090505b8415620003c6576200036660018362000849565b915062000375600a8662000863565b620003829060306200087a565b60f81b8183815181106200039a576200039a62000895565b60200101906001600160f81b031916908160001a905350620003be600a8662000832565b945062000352565b949350505050565b828054620003dc9062000598565b90600052602060002090601f0160209004810192826200040057600085556200044b565b82601f106200041b57805160ff19168380011785556200044b565b828001600101855582156200044b579182015b828111156200044b5782518255916020019190600101906200042e565b50620004599291506200045d565b5090565b5b808211156200045957600081556001016200045e565b634e487b7160e01b600052604160045260246000fd5b60005b83811015620004a75781810151838201526020016200048d565b83811115620004b7576000848401525b50505050565b60008060408385031215620004d157600080fd5b82516001600160a01b0381168114620004e957600080fd5b60208401519092506001600160401b03808211156200050757600080fd5b818501915085601f8301126200051c57600080fd5b81518181111562000531576200053162000474565b604051601f8201601f19908116603f011681019083821181831017156200055c576200055c62000474565b816040528281528860208487010111156200057657600080fd5b620005898360208301602088016200048a565b80955050505050509250929050565b600181811c90821680620005ad57607f821691505b60208210811415620005cf57634e487b7160e01b600052602260045260246000fd5b50919050565b8054600090600181811c9080831680620005f057607f831692505b60208084108214156200061357634e487b7160e01b600052602260045260246000fd5b8180156200062a57600181146200063c576200066b565b60ff198616895284890196506200066b565b60008881526020902060005b86811015620006635781548b82015290850190830162000648565b505084890196505b50505050505092915050565b6c021a922a0aa22902a20a126229609d1b815260006200069b600d830185620005d5565b8351620006ad8183602088016200048a565b7f202861727469636c65496420696e742c207469746c6520746578742c2074616791019081527f5f3120746578742c207461675f3220746578742c207461675f3320746578742c60208201527f20617574686f7220746578742c206970667343696420746578742c2074696d6560408201526a7374616d7020696e74293b60a81b6060820152606b01949350505050565b60018060a01b038316815260406020820152600082518060408401526200076d8160608501602087016200048a565b601f01601f1916919091016060019392505050565b6000602082840312156200079557600080fd5b5051919050565b6000620007aa8286620005d5565b8451620007bc8183602089016200048a565b605f60f81b91019081528351620007db8160018401602088016200048a565b0160010195945050505050565b634e487b7160e01b600052601160045260246000fd5b6000600019821415620008155762000815620007e8565b5060010190565b634e487b7160e01b600052601260045260246000fd5b6000826200084457620008446200081c565b500490565b6000828210156200085e576200085e620007e8565b500390565b6000826200087557620008756200081c565b500690565b60008219821115620008905762000890620007e8565b500190565b634e487b7160e01b600052603260045260246000fd5b611f9180620008bb6000396000f3fe608060405234801561001057600080fd5b50600436106101375760003560e01c806370a08231116100b8578063a22cb4651161007c578063a22cb4651461026a578063b88d4fde1461027d578063c87b56dd14610290578063e985e9c5146102a3578063f2fde38b146102df578063f745630f146102f257600080fd5b806370a0823114610223578063715018a61461023657806386833e911461023e5780638da5cb5b1461025157806395d89b411461026257600080fd5b806318160ddd116100ff57806318160ddd146101c157806323b872dd146101d757806342842e0e146101ea578063456fb54c146101fd5780636352211e1461021057600080fd5b806301ffc9a71461013c57806303ee438c1461016457806306fdde0314610179578063081812fc14610181578063095ea7b3146101ac575b600080fd5b61014f61014a366004611440565b610305565b60405190151581526020015b60405180910390f35b61016c610357565b60405161015b91906114b5565b61016c61038e565b61019461018f3660046114c8565b610420565b6040516001600160a01b03909116815260200161015b565b6101bf6101ba3660046114fd565b610464565b005b600154600054035b60405190815260200161015b565b6101bf6101e5366004611527565b610504565b6101bf6101f8366004611527565b610695565b61016c61020b3660046114c8565b6106b5565b61019461021e3660046114c8565b61074b565b6101c9610231366004611563565b610756565b6101bf6107a5565b6101bf61024c36600461162a565b6107b9565b6008546001600160a01b0316610194565b61016c6108f6565b6101bf6102783660046116fc565b610905565b6101bf61028b366004611738565b61099b565b61016c61029e3660046114c8565b6109e5565b61014f6102b13660046117b4565b6001600160a01b03918216600090815260076020908152604080832093909416825291909152205460ff1690565b6101bf6102ed366004611563565b610a94565b6101bf6103003660046117e7565b610b0d565b60006301ffc9a760e01b6001600160e01b03198316148061033657506380ac58cd60e01b6001600160e01b03198316145b806103515750635b5e139f60e01b6001600160e01b03198316145b92915050565b60606000610363610d8c565b905080600b60405160200161037992919061191f565b60405160208183030381529060405291505090565b60606002805461039d9061184a565b80601f01602080910402602001604051908101604052809291908181526020018280546103c99061184a565b80156104165780601f106103eb57610100808354040283529160200191610416565b820191906000526020600020905b8154815290600101906020018083116103f957829003601f168201915b5050505050905090565b600061042b82610d9b565b610448576040516333d1c03960e21b815260040160405180910390fd5b506000908152600660205260409020546001600160a01b031690565b600061046f8261074b565b9050336001600160a01b038216146104a85761048b81336102b1565b6104a8576040516367d9dca160e11b815260040160405180910390fd5b60008281526006602052604080822080546001600160a01b0319166001600160a01b0387811691821790925591518593918516917f8c5be1e5ebec7d5bd14f71427d1e84f3dd0314c0f7b2291e5b200ac8c7c3b92591a4505050565b600061050f82610dc2565b9050836001600160a01b0316816001600160a01b0316146105425760405162a1148160e81b815260040160405180910390fd5b60008281526006602052604090208054338082146001600160a01b0388169091141761058f5761057286336102b1565b61058f57604051632ce44b5f60e11b815260040160405180910390fd5b6001600160a01b0385166105b657604051633a954ecd60e21b815260040160405180910390fd5b80156105c157600082555b6001600160a01b038681166000908152600560205260408082208054600019019055918716808252919020805460010190554260a01b17600160e11b17600085815260046020526040902055600160e11b831661064c576001840160008181526004602052604090205461064a57600054811461064a5760008181526004602052604090208490555b505b83856001600160a01b0316876001600160a01b03167fddf252ad1be2c89b69c2b068fc378daa952ba7f163c4a11628f55a4df523b3ef60405160405180910390a4505050505050565b6106b08383836040518060200160405280600081525061099b565b505050565b60606106c082610d9b565b6106e55760405162461bcd60e51b81526004016106dc90611965565b60405180910390fd5b60006106ef610d8c565b90506000600b6106fe85610c86565b60405160200161070f9291906119b6565b60405160208183030381529060405290508181604051602001610733929190611a19565b60405160208183030381529060405292505050919050565b600061035182610dc2565b60006001600160a01b03821661077f576040516323d3ad8160e21b815260040160405180910390fd5b506001600160a01b031660009081526005602052604090205467ffffffffffffffff1690565b6107ad610e2a565b6107b76000610e84565b565b600f816040516107c99190611a48565b9081526040519081900360200190205460ff16156107f95760405162461bcd60e51b81526004016106dc90611a64565b600054600a54600c546001600160a01b039091169063eaf5d04e903090600b61082186610c86565b8b8b8b8b610830336014610ed6565b8c61083a42610c86565b60405160200161085299989796959493929190611aae565b6040516020818303038152906040526040518463ffffffff1660e01b815260040161087f93929190611c16565b600060405180830381600087803b15801561089957600080fd5b505af11580156108ad573d6000803e3d6000fd5b505050506108bc336001611072565b6001600f836040516108ce9190611a48565b908152604051908190036020019020805491151560ff19909216919091179055505050505050565b60606003805461039d9061184a565b6001600160a01b03821633141561092f5760405163b06307db60e01b815260040160405180910390fd5b3360008181526007602090815260408083206001600160a01b03871680855290835292819020805460ff191686151590811790915590519081529192917f17307eab39ab6107e8899845ad3d59bd9653f200f220920489ca2b5937696c31910160405180910390a35050565b6109a6848484610504565b6001600160a01b0383163b156109df576109c284848484611090565b6109df576040516368d2bf6b60e11b815260040160405180910390fd5b50505050565b60606109f082610d9b565b610a0c5760405162461bcd60e51b81526004016106dc90611965565b6000610a1783610c86565b610a2084610c86565b600e604051602001610a3493929190611c3d565b6040516020818303038152906040529050610a6d81604051602001610a599190611a48565b604051602081830303815290604052611178565b604051602001610a7d9190611cfd565b604051602081830303815290604052915050919050565b610a9c610e2a565b6001600160a01b038116610b015760405162461bcd60e51b815260206004820152602660248201527f4f776e61626c653a206e6577206f776e657220697320746865207a65726f206160448201526564647265737360d01b60648201526084016106dc565b610b0a81610e84565b50565b600f81604051610b1d9190611a48565b9081526040519081900360200190205460ff1615610b4d5760405162461bcd60e51b81526004016106dc90611a64565b33610b578361074b565b6001600160a01b031614610bb95760405162461bcd60e51b8152602060048201526024808201527f556e626c6f676765644e46543a204f6e6c79206f776e65722063616e207570646044820152636174652160e01b60648201526084016106dc565b600a54600c546001600160a01b039091169063eaf5d04e903090600b85610bdf88610c86565b604051602001610bf193929190611d42565b6040516020818303038152906040526040518463ffffffff1660e01b8152600401610c1e93929190611c16565b600060405180830381600087803b158015610c3857600080fd5b505af1158015610c4c573d6000803e3d6000fd5b505050506001600f82604051610c629190611a48565b908152604051908190036020019020805491151560ff199092169190911790555050565b606081610caa5750506040805180820190915260018152600360fc1b602082015290565b8160005b8115610cd45780610cbe81611ded565b9150610ccd9050600a83611e1e565b9150610cae565b60008167ffffffffffffffff811115610cef57610cef61157e565b6040519080825280601f01601f191660200182016040528015610d19576020820181803683370190505b5090505b8415610d8457610d2e600183611e32565b9150610d3b600a86611e49565b610d46906030611e5d565b60f81b818381518110610d5b57610d5b611e75565b60200101906001600160f81b031916908160001a905350610d7d600a86611e1e565b9450610d1d565b949350505050565b60606009805461039d9061184a565b6000805482108015610351575050600090815260046020526040902054600160e01b161590565b600081600054811015610e1157600081815260046020526040902054600160e01b8116610e0f575b80610e08575060001901600081815260046020526040902054610dea565b9392505050565b505b604051636f96cda160e11b815260040160405180910390fd5b6008546001600160a01b031633146107b75760405162461bcd60e51b815260206004820181905260248201527f4f776e61626c653a2063616c6c6572206973206e6f7420746865206f776e657260448201526064016106dc565b600880546001600160a01b038381166001600160a01b0319831681179093556040519116919082907f8be0079c531659141344cd1fd0a4f28419497f9722a3daafe3b4186f6b6457e090600090a35050565b60606000610ee5836002611e8b565b610ef0906002611e5d565b67ffffffffffffffff811115610f0857610f0861157e565b6040519080825280601f01601f191660200182016040528015610f32576020820181803683370190505b509050600360fc1b81600081518110610f4d57610f4d611e75565b60200101906001600160f81b031916908160001a905350600f60fb1b81600181518110610f7c57610f7c611e75565b60200101906001600160f81b031916908160001a9053506000610fa0846002611e8b565b610fab906001611e5d565b90505b6001811115611023576f181899199a1a9b1b9c1cb0b131b232b360811b85600f1660108110610fdf57610fdf611e75565b1a60f81b828281518110610ff557610ff5611e75565b60200101906001600160f81b031916908160001a90535060049490941c9361101c81611eaa565b9050610fae565b508315610e085760405162461bcd60e51b815260206004820181905260248201527f537472696e67733a20686578206c656e67746820696e73756666696369656e7460448201526064016106dc565b61108c8282604051806020016040528060008152506112e0565b5050565b604051630a85bd0160e11b81526000906001600160a01b0385169063150b7a02906110c5903390899088908890600401611ec1565b6020604051808303816000875af1925050508015611100575060408051601f3d908101601f191682019092526110fd91810190611efe565b60015b61115b573d80801561112e576040519150601f19603f3d011682016040523d82523d6000602084013e611133565b606091505b508051611153576040516368d2bf6b60e11b815260040160405180910390fd5b805181602001fd5b6001600160e01b031916630a85bd0160e11b149050949350505050565b606081516000141561119857505060408051602081019091526000815290565b6000604051806060016040528060408152602001611f1c60409139905060006003845160026111c79190611e5d565b6111d19190611e1e565b6111dc906004611e8b565b905060006111eb826020611e5d565b67ffffffffffffffff8111156112035761120361157e565b6040519080825280601f01601f19166020018201604052801561122d576020820181803683370190505b509050818152600183018586518101602084015b8183101561129b5760039283018051603f601282901c811687015160f890811b8552600c83901c8216880151811b6001860152600683901c8216880151811b60028601529116860151901b93820193909352600401611241565b6003895106600181146112b557600281146112c6576112d2565b613d3d60f01b6001198301526112d2565b603d60f81b6000198301525b509398975050505050505050565b6112ea838361134d565b6001600160a01b0383163b156106b0576000548281035b6113146000868380600101945086611090565b611331576040516368d2bf6b60e11b815260040160405180910390fd5b81811061130157816000541461134657600080fd5b5050505050565b6000546001600160a01b03831661137657604051622e076360e81b815260040160405180910390fd5b816113945760405163b562e8dd60e01b815260040160405180910390fd5b6001600160a01b038316600081815260056020526040902080546801000000000000000185020190554260a01b6001841460e11b1717600082815260046020526040902055808281015b6040516001830192906001600160a01b038716906000907fddf252ad1be2c89b69c2b068fc378daa952ba7f163c4a11628f55a4df523b3ef908290a48082106113de5760005550505050565b6001600160e01b031981168114610b0a57600080fd5b60006020828403121561145257600080fd5b8135610e088161142a565b60005b83811015611478578181015183820152602001611460565b838111156109df5750506000910152565b600081518084526114a181602086016020860161145d565b601f01601f19169290920160200192915050565b602081526000610e086020830184611489565b6000602082840312156114da57600080fd5b5035919050565b80356001600160a01b03811681146114f857600080fd5b919050565b6000806040838503121561151057600080fd5b611519836114e1565b946020939093013593505050565b60008060006060848603121561153c57600080fd5b611545846114e1565b9250611553602085016114e1565b9150604084013590509250925092565b60006020828403121561157557600080fd5b610e08826114e1565b634e487b7160e01b600052604160045260246000fd5b600067ffffffffffffffff808411156115af576115af61157e565b604051601f8501601f19908116603f011681019082821181831017156115d7576115d761157e565b816040528093508581528686860111156115f057600080fd5b858560208301376000602087830101525050509392505050565b600082601f83011261161b57600080fd5b610e0883833560208501611594565b600080600080600060a0868803121561164257600080fd5b853567ffffffffffffffff8082111561165a57600080fd5b61166689838a0161160a565b9650602088013591508082111561167c57600080fd5b61168889838a0161160a565b9550604088013591508082111561169e57600080fd5b6116aa89838a0161160a565b945060608801359150808211156116c057600080fd5b6116cc89838a0161160a565b935060808801359150808211156116e257600080fd5b506116ef8882890161160a565b9150509295509295909350565b6000806040838503121561170f57600080fd5b611718836114e1565b91506020830135801515811461172d57600080fd5b809150509250929050565b6000806000806080858703121561174e57600080fd5b611757856114e1565b9350611765602086016114e1565b925060408501359150606085013567ffffffffffffffff81111561178857600080fd5b8501601f8101871361179957600080fd5b6117a887823560208401611594565b91505092959194509250565b600080604083850312156117c757600080fd5b6117d0836114e1565b91506117de602084016114e1565b90509250929050565b600080604083850312156117fa57600080fd5b82359150602083013567ffffffffffffffff81111561181857600080fd5b6118248582860161160a565b9150509250929050565b6000815161184081856020860161145d565b9290920192915050565b600181811c9082168061185e57607f821691505b6020821081141561187f57634e487b7160e01b600052602260045260246000fd5b50919050565b8054600090600181811c908083168061189f57607f831692505b60208084108214156118c157634e487b7160e01b600052602260045260246000fd5b8180156118d557600181146118e657611913565b60ff19861689528489019650611913565b60008881526020902060005b8681101561190b5781548b8201529085019083016118f2565b505084890196505b50505050505092915050565b6000835161193181846020880161145d565b73053454c4543542532302a25323046524f4d2532360641b90830190815261195c6014820185611885565b95945050505050565b60208082526031908201527f45524337323155524953746f726167653a2055524920717565727920666f72206040820152703737b732bc34b9ba32b73a103a37b5b2b760791b606082015260800190565b73053454c4543542532302a25323046524f4d2532360641b815260006119df6014830185611885565b74253230574845524525323061727469636c6549643d60581b81528351611a0d81601584016020880161145d565b01601501949350505050565b60008351611a2b81846020880161145d565b835190830190611a3f81836020880161145d565b01949350505050565b60008251611a5a81846020870161145d565b9190910192915050565b6020808252602a908201527f556e626c6f676765644e46543a204349442068617320616c7265616479206265604082015269656e206d696e7465642160b01b606082015260800190565b6b024a729a2a92a1024a72a27960a51b81526000611acf600c83018c611885565b7f202861727469636c6549642c207469746c652c207461675f312c207461675f3281527f2c207461675f332c20617574686f722c20697066734369642c2074696d65737460208201526c0c2dae05240ac8298aa8aa6405609b1b60408201528a51611b4181604d840160208f0161145d565b01611b54604d8201622c202760e81b9052565b611b61605082018b61182e565b63272c202760e01b815290506004611b7b8183018b61182e565b63272c202760e01b81529150611b938183018a61182e565b63272c202760e01b81529150611bab8183018961182e565b63272c202760e01b81529150611bc38183018861182e565b63272c202760e01b81529150611bdb8183018761182e565b63272c202760e01b81529150611bf38183018661182e565b915050611c048161272960f01b9052565b6002019b9a5050505050505050505050565b60018060a01b038416815282602082015260606040820152600061195c6060830184611489565b7f7b226e616d65223a22556e626c6f676765642041727469636c65202300000000815260008451611c7581601c85016020890161145d565b7f222c20226465736372697074696f6e223a22556e626c6f676765642041727469601c9184019182015264636c65202360d81b603c8201528451611cc081604184016020890161145d565b6c1116101134b6b0b3b2911d101160991b60419290910191820152611ce8604e820185611885565b61227d60f01b81526002019695505050505050565b7f646174613a6170706c69636174696f6e2f6a736f6e3b6261736536342c000000815260008251611d3581601d85016020870161145d565b91909101601d0192915050565b6602aa82220aa22960cd1b81526000611d5e6007830186611885565b6f205345542069706673436964203d202760801b81528451611d8781601084016020890161145d565b73013902ba422a9229030b93a34b1b632a4b2101e960651b601092909101918201528351611dbc81602484016020880161145d565b603b60f81b6024929091019182015260250195945050505050565b634e487b7160e01b600052601160045260246000fd5b6000600019821415611e0157611e01611dd7565b5060010190565b634e487b7160e01b600052601260045260246000fd5b600082611e2d57611e2d611e08565b500490565b600082821015611e4457611e44611dd7565b500390565b600082611e5857611e58611e08565b500690565b60008219821115611e7057611e70611dd7565b500190565b634e487b7160e01b600052603260045260246000fd5b6000816000190483118215151615611ea557611ea5611dd7565b500290565b600081611eb957611eb9611dd7565b506000190190565b6001600160a01b0385811682528416602082015260408101839052608060608201819052600090611ef490830184611489565b9695505050505050565b600060208284031215611f1057600080fd5b8151610e088161142a56fe4142434445464748494a4b4c4d4e4f505152535455565758595a6162636465666768696a6b6c6d6e6f707172737475767778797a303132333435363738392b2fa2646970667358221220f8484392efeaaec773df91a741c9fec68453620ee728f3f1317362cf08c6874364736f6c634300080c003368747470733a2f2f746573746e65742e7461626c656c616e642e6e6574776f726b2f71756572793f733d",
  "devdoc": {
    "kind": "dev",
    "methods": {
      "approve(address,uint256)": {
        "details": "See {IERC721-approve}."
      },
      "balanceOf(address)": {
        "details": "See {IERC721-balanceOf}."
      },
      "getApproved(uint256)": {
        "details": "See {IERC721-getApproved}."
      },
      "isApprovedForAll(address,address)": {
        "details": "See {IERC721-isApprovedForAll}."
      },
      "mint(string,string,string,string,string)": {
        "details": "mint allows anyone to mint a token in this project. Any time a token is minted, a new row of metadata will be dynamically inserted into the metadata table."
      },
      "name()": {
        "details": "See {IERC721Metadata-name}."
      },
      "owner()": {
        "details": "Returns the address of the current owner."
      },
      "ownerOf(uint256)": {
        "details": "See {IERC721-ownerOf}."
      },
      "renounceOwnership()": {
        "details": "Leaves the contract without owner. It will not be possible to call `onlyOwner` functions anymore. Can only be called by the current owner. NOTE: Renouncing ownership will leave the contract without an owner, thereby removing any functionality that is only available to the owner."
      },
      "safeTransferFrom(address,address,uint256)": {
        "details": "See {IERC721-safeTransferFrom}."
      },
      "safeTransferFrom(address,address,uint256,bytes)": {
        "details": "See {IERC721-safeTransferFrom}."
      },
      "setApprovalForAll(address,bool)": {
        "details": "See {IERC721-setApprovalForAll}."
      },
      "supportsInterface(bytes4)": {
        "details": "See {IERC165-supportsInterface}."
      },
      "symbol()": {
        "details": "See {IERC721Metadata-symbol}."
      },
      "tokenURI(uint256)": {
        "details": "tokenURI is an example of how to turn a row in your table back into erc721 compliant metadata JSON. Here, we do a simple SELECT statement with function that converts the result into json."
      },
      "totalSupply()": {
        "details": "Returns the total number of tokens in existence. Burned tokens will reduce the count. To get the total number of tokens minted, please see `_totalMinted`."
      },
      "transferFrom(address,address,uint256)": {
        "details": "Transfers `tokenId` from `from` to `to`. Requirements: - `to` cannot be the zero address. - `tokenId` token must be owned by `from`. Emits a {Transfer} event."
      },
      "transferOwnership(address)": {
        "details": "Transfers ownership of the contract to a new account (`newOwner`). Can only be called by the current owner."
      },
      "update(uint256,string)": {
        "details": "Allows owner of the token to update their ipfs cid. Any time a token is minted, a new row of metadata will be dynamically inserted into the metadata table."
      }
    },
    "version": 1
  },
  "userdoc": {
    "errors": {
      "ApprovalCallerNotOwnerNorApproved()": [
        {
          "notice": "The caller must own the token or be an approved operator."
        }
      ],
      "ApprovalQueryForNonexistentToken()": [
        {
          "notice": "The token does not exist."
        }
      ],
      "ApproveToCaller()": [
        {
          "notice": "The caller cannot approve to their own address."
        }
      ],
      "BalanceQueryForZeroAddress()": [
        {
          "notice": "Cannot query the balance for the zero address."
        }
      ],
      "MintERC2309QuantityExceedsLimit()": [
        {
          "notice": "The `quantity` minted with ERC2309 exceeds the safety limit."
        }
      ],
      "MintToZeroAddress()": [
        {
          "notice": "Cannot mint to the zero address."
        }
      ],
      "MintZeroQuantity()": [
        {
          "notice": "The quantity of tokens minted must be more than zero."
        }
      ],
      "OwnerQueryForNonexistentToken()": [
        {
          "notice": "The token does not exist."
        }
      ],
      "OwnershipNotInitializedForExtraData()": [
        {
          "notice": "The `extraData` cannot be set on an unintialized ownership slot."
        }
      ],
      "TransferCallerNotOwnerNorApproved()": [
        {
          "notice": "The caller must own the token or be an approved operator."
        }
      ],
      "TransferFromIncorrectOwner()": [
        {
          "notice": "The token must be owned by `from`."
        }
      ],
      "TransferToNonERC721ReceiverImplementer()": [
        {
          "notice": "Cannot safely transfer to a contract that does not implement the ERC721Receiver interface."
        }
      ],
      "TransferToZeroAddress()": [
        {
          "notice": "Cannot transfer to the zero address."
        }
      ],
      "URIQueryForNonexistentToken()": [
        {
          "notice": "The token does not exist."
        }
      ]
    },
    "kind": "user",
    "methods": {
      "tablelandURI(uint256)": {
        "notice": "Get the URL String of the tableland query"
      }
    },
    "version": 1
  },
  "storageLayout": {
    "storage": [
      {
        "astId": 1836,
        "contract": "contracts/UnbloggedNFT.sol:UnbloggedNFT",
        "label": "_currentIndex",
        "offset": 0,
        "slot": "0",
        "type": "t_uint256"
      },
      {
        "astId": 1838,
        "contract": "contracts/UnbloggedNFT.sol:UnbloggedNFT",
        "label": "_burnCounter",
        "offset": 0,
        "slot": "1",
        "type": "t_uint256"
      },
      {
        "astId": 1840,
        "contract": "contracts/UnbloggedNFT.sol:UnbloggedNFT",
        "label": "_name",
        "offset": 0,
        "slot": "2",
        "type": "t_string_storage"
      },
      {
        "astId": 1842,
        "contract": "contracts/UnbloggedNFT.sol:UnbloggedNFT",
        "label": "_symbol",
        "offset": 0,
        "slot": "3",
        "type": "t_string_storage"
      },
      {
        "astId": 1846,
        "contract": "contracts/UnbloggedNFT.sol:UnbloggedNFT",
        "label": "_packedOwnerships",
        "offset": 0,
        "slot": "4",
        "type": "t_mapping(t_uint256,t_uint256)"
      },
      {
        "astId": 1850,
        "contract": "contracts/UnbloggedNFT.sol:UnbloggedNFT",
        "label": "_packedAddressData",
        "offset": 0,
        "slot": "5",
        "type": "t_mapping(t_address,t_uint256)"
      },
      {
        "astId": 1854,
        "contract": "contracts/UnbloggedNFT.sol:UnbloggedNFT",
        "label": "_tokenApprovals",
        "offset": 0,
        "slot": "6",
        "type": "t_mapping(t_uint256,t_address)"
      },
      {
        "astId": 1860,
        "contract": "contracts/UnbloggedNFT.sol:UnbloggedNFT",
        "label": "_operatorApprovals",
        "offset": 0,
        "slot": "7",
        "type": "t_mapping(t_address,t_mapping(t_address,t_bool))"
      },
      {
        "astId": 1346,
        "contract": "contracts/UnbloggedNFT.sol:UnbloggedNFT",
        "label": "_owner",
        "offset": 0,
        "slot": "8",
        "type": "t_address"
      },
      {
        "astId": 4224,
        "contract": "contracts/UnbloggedNFT.sol:UnbloggedNFT",
        "label": "_baseURIString",
        "offset": 0,
        "slot": "9",
        "type": "t_string_storage"
      },
      {
        "astId": 4227,
        "contract": "contracts/UnbloggedNFT.sol:UnbloggedNFT",
        "label": "_tableland",
        "offset": 0,
        "slot": "10",
        "type": "t_contract(ITablelandTables)3739"
      },
      {
        "astId": 4229,
        "contract": "contracts/UnbloggedNFT.sol:UnbloggedNFT",
        "label": "_metadataTable",
        "offset": 0,
        "slot": "11",
        "type": "t_string_storage"
      },
      {
        "astId": 4231,
        "contract": "contracts/UnbloggedNFT.sol:UnbloggedNFT",
        "label": "_metadataTableId",
        "offset": 0,
        "slot": "12",
        "type": "t_uint256"
      },
      {
        "astId": 4234,
        "contract": "contracts/UnbloggedNFT.sol:UnbloggedNFT",
        "label": "_tablePrefix",
        "offset": 0,
        "slot": "13",
        "type": "t_string_storage"
      },
      {
        "astId": 4236,
        "contract": "contracts/UnbloggedNFT.sol:UnbloggedNFT",
        "label": "_defaultNFTImage",
        "offset": 0,
        "slot": "14",
        "type": "t_string_storage"
      },
      {
        "astId": 4240,
        "contract": "contracts/UnbloggedNFT.sol:UnbloggedNFT",
        "label": "cidMinted",
        "offset": 0,
        "slot": "15",
        "type": "t_mapping(t_string_memory_ptr,t_bool)"
      }
    ],
    "types": {
      "t_address": {
        "encoding": "inplace",
        "label": "address",
        "numberOfBytes": "20"
      },
      "t_bool": {
        "encoding": "inplace",
        "label": "bool",
        "numberOfBytes": "1"
      },
      "t_contract(ITablelandTables)3739": {
        "encoding": "inplace",
        "label": "contract ITablelandTables",
        "numberOfBytes": "20"
      },
      "t_mapping(t_address,t_bool)": {
        "encoding": "mapping",
        "key": "t_address",
        "label": "mapping(address => bool)",
        "numberOfBytes": "32",
        "value": "t_bool"
      },
      "t_mapping(t_address,t_mapping(t_address,t_bool))": {
        "encoding": "mapping",
        "key": "t_address",
        "label": "mapping(address => mapping(address => bool))",
        "numberOfBytes": "32",
        "value": "t_mapping(t_address,t_bool)"
      },
      "t_mapping(t_address,t_uint256)": {
        "encoding": "mapping",
        "key": "t_address",
        "label": "mapping(address => uint256)",
        "numberOfBytes": "32",
        "value": "t_uint256"
      },
      "t_mapping(t_string_memory_ptr,t_bool)": {
        "encoding": "mapping",
        "key": "t_string_memory_ptr",
        "label": "mapping(string => bool)",
        "numberOfBytes": "32",
        "value": "t_bool"
      },
      "t_mapping(t_uint256,t_address)": {
        "encoding": "mapping",
        "key": "t_uint256",
        "label": "mapping(uint256 => address)",
        "numberOfBytes": "32",
        "value": "t_address"
      },
      "t_mapping(t_uint256,t_uint256)": {
        "encoding": "mapping",
        "key": "t_uint256",
        "label": "mapping(uint256 => uint256)",
        "numberOfBytes": "32",
        "value": "t_uint256"
      },
      "t_string_memory_ptr": {
        "encoding": "bytes",
        "label": "string",
        "numberOfBytes": "32"
      },
      "t_string_storage": {
        "encoding": "bytes",
        "label": "string",
        "numberOfBytes": "32"
      },
      "t_uint256": {
        "encoding": "inplace",
        "label": "uint256",
        "numberOfBytes": "32"
      }
    }
  }
}